{
  "_format": "hh-sol-artifact-1",
  "contractName": "TrustGraph",
  "sourceName": "contracts/TrustGraph.sol",
  "abi": [
    {
      "inputs": [],
      "stateMutability": "nonpayable",
      "type": "constructor"
    },
    {
      "inputs": [],
      "name": "AlreadyRegistered",
      "type": "error"
    },
    {
      "inputs": [],
      "name": "AlreadyVoted",
      "type": "error"
    },
    {
      "inputs": [],
      "name": "BootstrapPeriodEnded",
      "type": "error"
    },
    {
      "inputs": [],
      "name": "CannotInviteSelf",
      "type": "error"
    },
    {
      "inputs": [],
      "name": "InsufficientTrustToInvite",
      "type": "error"
    },
    {
      "inputs": [],
      "name": "InvalidCommitment",
      "type": "error"
    },
    {
      "inputs": [],
      "name": "InvalidNullifier",
      "type": "error"
    },
    {
      "inputs": [],
      "name": "NotRegistered",
      "type": "error"
    },
    {
      "inputs": [],
      "name": "OnlyOwner",
      "type": "error"
    },
    {
      "inputs": [],
      "name": "RumorAlreadyExists",
      "type": "error"
    },
    {
      "inputs": [],
      "name": "RumorDoesNotExist",
      "type": "error"
    },
    {
      "inputs": [],
      "name": "TrustScoreOutOfBounds",
      "type": "error"
    },
    {
      "anonymous": false,
      "inputs": [
        {
          "indexed": false,
          "internalType": "uint256",
          "name": "newEpoch",
          "type": "uint256"
        }
      ],
      "name": "EpochAdvanced",
      "type": "event"
    },
    {
      "anonymous": false,
      "inputs": [
        {
          "indexed": true,
          "internalType": "bytes32",
          "name": "rumorHash",
          "type": "bytes32"
        },
        {
          "indexed": true,
          "internalType": "address",
          "name": "creator",
          "type": "address"
        },
        {
          "indexed": false,
          "internalType": "uint256",
          "name": "epoch",
          "type": "uint256"
        }
      ],
      "name": "RumorCreated",
      "type": "event"
    },
    {
      "anonymous": false,
      "inputs": [
        {
          "indexed": true,
          "internalType": "address",
          "name": "user",
          "type": "address"
        },
        {
          "indexed": true,
          "internalType": "address",
          "name": "invitedBy",
          "type": "address"
        },
        {
          "indexed": false,
          "internalType": "uint8",
          "name": "trustScore",
          "type": "uint8"
        },
        {
          "indexed": false,
          "internalType": "bytes32",
          "name": "commitment",
          "type": "bytes32"
        }
      ],
      "name": "UserRegistered",
      "type": "event"
    },
    {
      "anonymous": false,
      "inputs": [
        {
          "indexed": true,
          "internalType": "address",
          "name": "user",
          "type": "address"
        },
        {
          "indexed": false,
          "internalType": "uint8",
          "name": "amount",
          "type": "uint8"
        },
        {
          "indexed": false,
          "internalType": "string",
          "name": "reason",
          "type": "string"
        }
      ],
      "name": "UserSlashed",
      "type": "event"
    },
    {
      "anonymous": false,
      "inputs": [
        {
          "indexed": true,
          "internalType": "bytes32",
          "name": "rumorHash",
          "type": "bytes32"
        },
        {
          "indexed": true,
          "internalType": "bytes32",
          "name": "nullifier",
          "type": "bytes32"
        },
        {
          "indexed": false,
          "internalType": "uint256",
          "name": "epoch",
          "type": "uint256"
        },
        {
          "indexed": false,
          "internalType": "bool",
          "name": "isTrue",
          "type": "bool"
        },
        {
          "indexed": false,
          "internalType": "uint256",
          "name": "weight",
          "type": "uint256"
        }
      ],
      "name": "VoteCast",
      "type": "event"
    },
    {
      "inputs": [],
      "name": "BOOTSTRAP_SLOTS",
      "outputs": [
        {
          "internalType": "uint8",
          "name": "",
          "type": "uint8"
        }
      ],
      "stateMutability": "view",
      "type": "function"
    },
    {
      "inputs": [],
      "name": "INITIAL_TRUST",
      "outputs": [
        {
          "internalType": "uint8",
          "name": "",
          "type": "uint8"
        }
      ],
      "stateMutability": "view",
      "type": "function"
    },
    {
      "inputs": [],
      "name": "INVITE_STAKE",
      "outputs": [
        {
          "internalType": "uint8",
          "name": "",
          "type": "uint8"
        }
      ],
      "stateMutability": "view",
      "type": "function"
    },
    {
      "inputs": [],
      "name": "MAX_TRUST",
      "outputs": [
        {
          "internalType": "uint8",
          "name": "",
          "type": "uint8"
        }
      ],
      "stateMutability": "view",
      "type": "function"
    },
    {
      "inputs": [],
      "name": "advanceEpoch",
      "outputs": [],
      "stateMutability": "nonpayable",
      "type": "function"
    },
    {
      "inputs": [
        {
          "internalType": "bytes32",
          "name": "commitment",
          "type": "bytes32"
        }
      ],
      "name": "bootstrapRegister",
      "outputs": [],
      "stateMutability": "nonpayable",
      "type": "function"
    },
    {
      "inputs": [],
      "name": "bootstrapUsed",
      "outputs": [
        {
          "internalType": "uint8",
          "name": "",
          "type": "uint8"
        }
      ],
      "stateMutability": "view",
      "type": "function"
    },
    {
      "inputs": [
        {
          "internalType": "address",
          "name": "voter",
          "type": "address"
        }
      ],
      "name": "calculateVoteWeight",
      "outputs": [
        {
          "internalType": "uint256",
          "name": "weight",
          "type": "uint256"
        }
      ],
      "stateMutability": "view",
      "type": "function"
    },
    {
      "inputs": [
        {
          "internalType": "bytes32",
          "name": "rumorHash",
          "type": "bytes32"
        },
        {
          "internalType": "bool",
          "name": "isTrue",
          "type": "bool"
        }
      ],
      "name": "castVote",
      "outputs": [],
      "stateMutability": "nonpayable",
      "type": "function"
    },
    {
      "inputs": [
        {
          "internalType": "bytes32",
          "name": "rumorHash",
          "type": "bytes32"
        },
        {
          "internalType": "bool",
          "name": "isTrue",
          "type": "bool"
        },
        {
          "internalType": "bytes32",
          "name": "nullifier",
          "type": "bytes32"
        }
      ],
      "name": "castVoteWithNullifier",
      "outputs": [],
      "stateMutability": "nonpayable",
      "type": "function"
    },
    {
      "inputs": [],
      "name": "currentEpoch",
      "outputs": [
        {
          "internalType": "uint256",
          "name": "",
          "type": "uint256"
        }
      ],
      "stateMutability": "view",
      "type": "function"
    },
    {
      "inputs": [
        {
          "internalType": "bytes32",
          "name": "rumorHash",
          "type": "bytes32"
        }
      ],
      "name": "getRumor",
      "outputs": [
        {
          "internalType": "string",
          "name": "content",
          "type": "string"
        },
        {
          "internalType": "uint256",
          "name": "createdAt",
          "type": "uint256"
        },
        {
          "internalType": "uint256",
          "name": "createdEpoch",
          "type": "uint256"
        },
        {
          "internalType": "address",
          "name": "creator",
          "type": "address"
        },
        {
          "internalType": "bool",
          "name": "exists",
          "type": "bool"
        }
      ],
      "stateMutability": "view",
      "type": "function"
    },
    {
      "inputs": [],
      "name": "getRumorCount",
      "outputs": [
        {
          "internalType": "uint256",
          "name": "",
          "type": "uint256"
        }
      ],
      "stateMutability": "view",
      "type": "function"
    },
    {
      "inputs": [
        {
          "internalType": "uint256",
          "name": "index",
          "type": "uint256"
        }
      ],
      "name": "getRumorHashByIndex",
      "outputs": [
        {
          "internalType": "bytes32",
          "name": "",
          "type": "bytes32"
        }
      ],
      "stateMutability": "view",
      "type": "function"
    },
    {
      "inputs": [
        {
          "internalType": "bytes32",
          "name": "rumorHash",
          "type": "bytes32"
        }
      ],
      "name": "getRumorTrustScore",
      "outputs": [
        {
          "internalType": "uint256",
          "name": "score",
          "type": "uint256"
        }
      ],
      "stateMutability": "view",
      "type": "function"
    },
    {
      "inputs": [
        {
          "internalType": "bytes32",
          "name": "rumorHash",
          "type": "bytes32"
        }
      ],
      "name": "getRumorVotes",
      "outputs": [
        {
          "internalType": "uint256",
          "name": "weightedTrue",
          "type": "uint256"
        },
        {
          "internalType": "uint256",
          "name": "weightedFalse",
          "type": "uint256"
        },
        {
          "internalType": "uint256",
          "name": "trueCount",
          "type": "uint256"
        },
        {
          "internalType": "uint256",
          "name": "falseCount",
          "type": "uint256"
        }
      ],
      "stateMutability": "view",
      "type": "function"
    },
    {
      "inputs": [
        {
          "internalType": "bytes32",
          "name": "rumorHash",
          "type": "bytes32"
        },
        {
          "internalType": "uint256",
          "name": "epoch",
          "type": "uint256"
        }
      ],
      "name": "getRumorVotesForEpoch",
      "outputs": [
        {
          "internalType": "uint256",
          "name": "weightedTrue",
          "type": "uint256"
        },
        {
          "internalType": "uint256",
          "name": "weightedFalse",
          "type": "uint256"
        },
        {
          "internalType": "uint256",
          "name": "trueCount",
          "type": "uint256"
        },
        {
          "internalType": "uint256",
          "name": "falseCount",
          "type": "uint256"
        }
      ],
      "stateMutability": "view",
      "type": "function"
    },
    {
      "inputs": [
        {
          "internalType": "bytes32",
          "name": "rumorHash",
          "type": "bytes32"
        },
        {
          "internalType": "address",
          "name": "voter",
          "type": "address"
        }
      ],
      "name": "hasVoted",
      "outputs": [
        {
          "internalType": "bool",
          "name": "",
          "type": "bool"
        }
      ],
      "stateMutability": "view",
      "type": "function"
    },
    {
      "inputs": [
        {
          "internalType": "bytes32",
          "name": "",
          "type": "bytes32"
        },
        {
          "internalType": "uint256",
          "name": "",
          "type": "uint256"
        },
        {
          "internalType": "address",
          "name": "",
          "type": "address"
        }
      ],
      "name": "hasVotedInEpoch",
      "outputs": [
        {
          "internalType": "bool",
          "name": "",
          "type": "bool"
        }
      ],
      "stateMutability": "view",
      "type": "function"
    },
    {
      "inputs": [
        {
          "internalType": "address",
          "name": "invitee",
          "type": "address"
        },
        {
          "internalType": "bytes32",
          "name": "commitment",
          "type": "bytes32"
        }
      ],
      "name": "inviteUser",
      "outputs": [],
      "stateMutability": "nonpayable",
      "type": "function"
    },
    {
      "inputs": [
        {
          "internalType": "address",
          "name": "",
          "type": "address"
        }
      ],
      "name": "inviter",
      "outputs": [
        {
          "internalType": "address",
          "name": "",
          "type": "address"
        }
      ],
      "stateMutability": "view",
      "type": "function"
    },
    {
      "inputs": [],
      "name": "isBootstrapActive",
      "outputs": [
        {
          "internalType": "bool",
          "name": "",
          "type": "bool"
        }
      ],
      "stateMutability": "view",
      "type": "function"
    },
    {
      "inputs": [
        {
          "internalType": "bytes32",
          "name": "rumorHash",
          "type": "bytes32"
        },
        {
          "internalType": "bytes32",
          "name": "nullifier",
          "type": "bytes32"
        }
      ],
      "name": "isNullifierUsed",
      "outputs": [
        {
          "internalType": "bool",
          "name": "",
          "type": "bool"
        }
      ],
      "stateMutability": "view",
      "type": "function"
    },
    {
      "inputs": [
        {
          "internalType": "address",
          "name": "",
          "type": "address"
        }
      ],
      "name": "isRegistered",
      "outputs": [
        {
          "internalType": "bool",
          "name": "",
          "type": "bool"
        }
      ],
      "stateMutability": "view",
      "type": "function"
    },
    {
      "inputs": [
        {
          "internalType": "bytes32",
          "name": "",
          "type": "bytes32"
        },
        {
          "internalType": "uint256",
          "name": "",
          "type": "uint256"
        },
        {
          "internalType": "bytes32",
          "name": "",
          "type": "bytes32"
        }
      ],
      "name": "nullifierUsed",
      "outputs": [
        {
          "internalType": "bool",
          "name": "",
          "type": "bool"
        }
      ],
      "stateMutability": "view",
      "type": "function"
    },
    {
      "inputs": [],
      "name": "owner",
      "outputs": [
        {
          "internalType": "address",
          "name": "",
          "type": "address"
        }
      ],
      "stateMutability": "view",
      "type": "function"
    },
    {
      "inputs": [
        {
          "internalType": "bytes32",
          "name": "rumorHash",
          "type": "bytes32"
        },
        {
          "internalType": "string",
          "name": "content",
          "type": "string"
        }
      ],
      "name": "registerRumor",
      "outputs": [],
      "stateMutability": "nonpayable",
      "type": "function"
    },
    {
      "inputs": [],
      "name": "remainingBootstrapSlots",
      "outputs": [
        {
          "internalType": "uint8",
          "name": "",
          "type": "uint8"
        }
      ],
      "stateMutability": "view",
      "type": "function"
    },
    {
      "inputs": [
        {
          "internalType": "bytes32",
          "name": "",
          "type": "bytes32"
        },
        {
          "internalType": "uint256",
          "name": "",
          "type": "uint256"
        }
      ],
      "name": "rumorEpochData",
      "outputs": [
        {
          "internalType": "uint256",
          "name": "weightedTrueVotes",
          "type": "uint256"
        },
        {
          "internalType": "uint256",
          "name": "weightedFalseVotes",
          "type": "uint256"
        },
        {
          "internalType": "uint256",
          "name": "trueVoteCount",
          "type": "uint256"
        },
        {
          "internalType": "uint256",
          "name": "falseVoteCount",
          "type": "uint256"
        }
      ],
      "stateMutability": "view",
      "type": "function"
    },
    {
      "inputs": [
        {
          "internalType": "uint256",
          "name": "",
          "type": "uint256"
        }
      ],
      "name": "rumorHashes",
      "outputs": [
        {
          "internalType": "bytes32",
          "name": "",
          "type": "bytes32"
        }
      ],
      "stateMutability": "view",
      "type": "function"
    },
    {
      "inputs": [
        {
          "internalType": "bytes32",
          "name": "",
          "type": "bytes32"
        }
      ],
      "name": "rumors",
      "outputs": [
        {
          "internalType": "bytes32",
          "name": "rumorHash",
          "type": "bytes32"
        },
        {
          "internalType": "string",
          "name": "content",
          "type": "string"
        },
        {
          "internalType": "uint256",
          "name": "createdAt",
          "type": "uint256"
        },
        {
          "internalType": "uint256",
          "name": "createdEpoch",
          "type": "uint256"
        },
        {
          "internalType": "address",
          "name": "creator",
          "type": "address"
        },
        {
          "internalType": "bool",
          "name": "exists",
          "type": "bool"
        }
      ],
      "stateMutability": "view",
      "type": "function"
    },
    {
      "inputs": [
        {
          "internalType": "address",
          "name": "user",
          "type": "address"
        },
        {
          "internalType": "uint8",
          "name": "amount",
          "type": "uint8"
        },
        {
          "internalType": "string",
          "name": "reason",
          "type": "string"
        }
      ],
      "name": "slash",
      "outputs": [],
      "stateMutability": "nonpayable",
      "type": "function"
    },
    {
      "inputs": [
        {
          "internalType": "address",
          "name": "",
          "type": "address"
        }
      ],
      "name": "trustScore",
      "outputs": [
        {
          "internalType": "uint8",
          "name": "",
          "type": "uint8"
        }
      ],
      "stateMutability": "view",
      "type": "function"
    },
    {
      "inputs": [
        {
          "internalType": "address",
          "name": "",
          "type": "address"
        }
      ],
      "name": "userCommitment",
      "outputs": [
        {
          "internalType": "bytes32",
          "name": "",
          "type": "bytes32"
        }
      ],
      "stateMutability": "view",
      "type": "function"
    }
  ],
  "bytecode": "0x60806040523480156200001157600080fd5b5033600460016101000a81548173ffffffffffffffffffffffffffffffffffffffff021916908373ffffffffffffffffffffffffffffffffffffffff160217905550600033426040516020016200006a9291906200034d565b6040516020818303038152906040528051906020012090506200009633600083620000b960201b60201c565b6001600460006101000a81548160ff021916908360ff16021790555050620003e3565b600a6000808573ffffffffffffffffffffffffffffffffffffffff1673ffffffffffffffffffffffffffffffffffffffff16815260200190815260200160002060006101000a81548160ff021916908360ff16021790555081600160008573ffffffffffffffffffffffffffffffffffffffff1673ffffffffffffffffffffffffffffffffffffffff16815260200190815260200160002060006101000a81548173ffffffffffffffffffffffffffffffffffffffff021916908373ffffffffffffffffffffffffffffffffffffffff1602179055506001600260008573ffffffffffffffffffffffffffffffffffffffff1673ffffffffffffffffffffffffffffffffffffffff16815260200190815260200160002060006101000a81548160ff02191690831515021790555080600360008573ffffffffffffffffffffffffffffffffffffffff1673ffffffffffffffffffffffffffffffffffffffff168152602001908152602001600020819055508173ffffffffffffffffffffffffffffffffffffffff168373ffffffffffffffffffffffffffffffffffffffff167ff6ac3a5beeb5c42959c013b669bee59d8529e57afe2fca48b653b6fe495e77a7600a846040516200028d929190620003b6565b60405180910390a3505050565b600073ffffffffffffffffffffffffffffffffffffffff82169050919050565b6000620002c7826200029a565b9050919050565b60008160601b9050919050565b6000620002e882620002ce565b9050919050565b6000620002fc82620002db565b9050919050565b620003186200031282620002ba565b620002ef565b82525050565b6000819050919050565b6000819050919050565b6200034762000341826200031e565b62000328565b82525050565b60006200035b828562000303565b6014820191506200036d828462000332565b6020820191508190509392505050565b600060ff82169050919050565b62000395816200037d565b82525050565b6000819050919050565b620003b0816200039b565b82525050565b6000604082019050620003cd60008301856200038a565b620003dc6020830184620003a5565b9392505050565b6130ca80620003f36000396000f3fe608060405234801561001057600080fd5b50600436106102065760003560e01c80639b4a2d391161011a578063cdced872116100ad578063ee8f0b7a1161007c578063ee8f0b7a14610687578063f18a306a146106b7578063f4ae1123146106d5578063fc2a38bb146106f1578063fe46b8ee1461070d57610206565b8063cdced872146105ea578063d607ffc514610608578063e4e7db4814610638578063ee0521fe1461065457610206565b8063bd1ec7eb116100e9578063bd1ec7eb14610550578063c3c5a5471461056c578063cabe20871461059c578063cd7fb198146105cc57610206565b80639b4a2d39146104995780639e83c93f146104b7578063aadc3b72146104eb578063b3c458581461051b57610206565b806353b544381161019d5780637fe64f1f1161016c5780637fe64f1f146103b557806383b5fecc146103e85780638b40e6e71461041b5780638da5cb5b1461044b5780638ede77211461046957610206565b806353b544381461032b578063597ef1ab146103495780636619157914610367578063766718081461039757610206565b80633cf80e6c116101d95780633cf80e6c146102915780633fbd42161461029b5780634a02b9b7146102cb578063534a8465146102fb57610206565b80630678dcfb1461020b578063175d20ba1461023b57806319c5fc86146102575780633b2574a614610273575b600080fd5b61022560048036038101906102209190612277565b61072b565b60405161023291906122bd565b60405180910390f35b6102556004803603810190610250919061233c565b61074f565b005b610271600480360381019061026c919061248b565b610ad6565b005b61027b610eb3565b604051610288919061250e565b60405180910390f35b610299610ed3565b005b6102b560048036038101906102b09190612529565b610fad565b6040516102c29190612565565b60405180910390f35b6102e560048036038101906102e09190612580565b611056565b6040516102f2919061250e565b60405180910390f35b61031560048036038101906103109190612529565b6110a5565b60405161032291906125cf565b60405180910390f35b6103336110c5565b60405161034091906125cf565b60405180910390f35b6103516110ca565b60405161035e91906125cf565b60405180910390f35b610381600480360381019061037c91906125ea565b6110cf565b60405161038e919061250e565b60405180910390f35b61039f61110b565b6040516103ac9190612565565b60405180910390f35b6103cf60048036038101906103ca919061263d565b611111565b6040516103df949392919061267d565b60405180910390f35b61040260048036038101906103fd91906126c2565b611165565b604051610412949392919061267d565b60405180910390f35b61043560048036038101906104309190612529565b6111b9565b60405161044291906122bd565b60405180910390f35b6104536111d1565b60405161046091906126fe565b60405180910390f35b610483600480360381019061047e91906126c2565b6111f7565b6040516104909190612565565b60405180910390f35b6104a1611273565b6040516104ae91906125cf565b60405180910390f35b6104d160048036038101906104cc91906126c2565b611286565b6040516104e29594939291906127a9565b60405180910390f35b61050560048036038101906105009190612803565b61138a565b604051610512919061250e565b60405180910390f35b610535600480360381019061053091906126c2565b611405565b60405161054796959493929190612843565b60405180910390f35b61056a600480360381019061056591906128ab565b6114f6565b005b61058660048036038101906105819190612529565b611739565b604051610593919061250e565b60405180910390f35b6105b660048036038101906105b19190612277565b611759565b6040516105c391906122bd565b60405180910390f35b6105d4611781565b6040516105e19190612565565b60405180910390f35b6105f261178e565b6040516105ff91906125cf565b60405180910390f35b610622600480360381019061061d91906128eb565b6117b1565b60405161062f919061250e565b60405180910390f35b610652600480360381019061064d91906126c2565b6117ed565b005b61066e6004803603810190610669919061263d565b611943565b60405161067e949392919061267d565b60405180910390f35b6106a1600480360381019061069c9190612529565b611980565b6040516106ae91906126fe565b60405180910390f35b6106bf6119b3565b6040516106cc91906125cf565b60405180910390f35b6106ef60048036038101906106ea919061293e565b6119b8565b005b61070b6004803603810190610706919061297e565b611d4a565b005b610715611fe4565b60405161072291906125cf565b60405180910390f35b6007818154811061073b57600080fd5b906000526020600020016000915090505481565b600260003373ffffffffffffffffffffffffffffffffffffffff1673ffffffffffffffffffffffffffffffffffffffff16815260200190815260200160002060009054906101000a900460ff166107d2576040517faba4733900000000000000000000000000000000000000000000000000000000815260040160405180910390fd5b60008060003373ffffffffffffffffffffffffffffffffffffffff1673ffffffffffffffffffffffffffffffffffffffff16815260200190815260200160002060009054906101000a900460ff1660ff160361085a576040517fe1a2a49600000000000000000000000000000000000000000000000000000000815260040160405180910390fd5b60006005549050600960008581526020019081526020016000206000828152602001908152602001600020600083815260200190815260200160002060009054906101000a900460ff16156108db576040517f7c9a1cf900000000000000000000000000000000000000000000000000000000815260040160405180910390fd5b60006108e633610fad565b90506000811161092b576040517f08c379a000000000000000000000000000000000000000000000000000000000815260040161092290612a2a565b60405180910390fd5b6001600960008781526020019081526020016000206000848152602001908152602001600020600085815260200190815260200160002060006101000a81548160ff0219169083151502179055506001600a6000878152602001908152602001600020600084815260200190815260200160002060003373ffffffffffffffffffffffffffffffffffffffff1673ffffffffffffffffffffffffffffffffffffffff16815260200190815260200160002060006101000a81548160ff021916908315150217905550600060086000878152602001908152602001600020600084815260200190815260200160002090508415610a5b5781816000016000828254610a359190612a79565b92505081905550806002016000815480929190610a5190612aad565b9190505550610a91565b81816001016000828254610a6f9190612a79565b92505081905550806003016000815480929190610a8b90612aad565b91905055505b83867f2b8dae225eec545e99be5094a9b74be142914a0d0304d95e0b1cdc1d223c0169858886604051610ac693929190612af5565b60405180910390a3505050505050565b600460019054906101000a900473ffffffffffffffffffffffffffffffffffffffff1673ffffffffffffffffffffffffffffffffffffffff163373ffffffffffffffffffffffffffffffffffffffff1614610b5d576040517f5fc483c500000000000000000000000000000000000000000000000000000000815260040160405180910390fd5b600260008573ffffffffffffffffffffffffffffffffffffffff1673ffffffffffffffffffffffffffffffffffffffff16815260200190815260200160002060009054906101000a900460ff16610be0576040517faba4733900000000000000000000000000000000000000000000000000000000815260040160405180910390fd5b6000808573ffffffffffffffffffffffffffffffffffffffff1673ffffffffffffffffffffffffffffffffffffffff16815260200190815260200160002060009054906101000a900460ff1660ff168360ff161180610c455750606460ff168360ff16115b15610c7c576040517fbfed2c2100000000000000000000000000000000000000000000000000000000815260040160405180910390fd5b826000808673ffffffffffffffffffffffffffffffffffffffff1673ffffffffffffffffffffffffffffffffffffffff16815260200190815260200160002060008282829054906101000a900460ff16610cd69190612b2c565b92506101000a81548160ff021916908360ff1602179055506000600160008673ffffffffffffffffffffffffffffffffffffffff1673ffffffffffffffffffffffffffffffffffffffff16815260200190815260200160002060009054906101000a900473ffffffffffffffffffffffffffffffffffffffff169050600073ffffffffffffffffffffffffffffffffffffffff168173ffffffffffffffffffffffffffffffffffffffff1614158015610de15750600560ff166000808373ffffffffffffffffffffffffffffffffffffffff1673ffffffffffffffffffffffffffffffffffffffff16815260200190815260200160002060009054906101000a900460ff1660ff1610155b15610e5a5760056000808373ffffffffffffffffffffffffffffffffffffffff1673ffffffffffffffffffffffffffffffffffffffff16815260200190815260200160002060008282829054906101000a900460ff16610e419190612b2c565b92506101000a81548160ff021916908360ff1602179055505b8473ffffffffffffffffffffffffffffffffffffffff167f4c71cf808faddd3414a39fceac3eb3c95bd7e246f1e20476ee7df63a4076d936858585604051610ea493929190612b9d565b60405180910390a25050505050565b6000600a60ff16600460009054906101000a900460ff1660ff1610905090565b600460019054906101000a900473ffffffffffffffffffffffffffffffffffffffff1673ffffffffffffffffffffffffffffffffffffffff163373ffffffffffffffffffffffffffffffffffffffff1614610f5a576040517f5fc483c500000000000000000000000000000000000000000000000000000000815260040160405180910390fd5b60056000815480929190610f6d90612aad565b91905055507fb7f0e37f8e78f28f1f21b98f426d307e949c22f2997ca4b562ee90c3e5b30b30600554604051610fa39190612565565b60405180910390a1565b6000806000808473ffffffffffffffffffffffffffffffffffffffff1673ffffffffffffffffffffffffffffffffffffffff16815260200190815260200160002060009054906101000a900460ff16905060008160ff1603611013576000915050611051565b6000670de0b6b3a76400008260ff1661102c9190612bcf565b9050600061103982611fe9565b9050633b9aca008161104b9190612c40565b93505050505b919050565b60006009600084815260200190815260200160002060006005548152602001908152602001600020600083815260200190815260200160002060009054906101000a900460ff16905092915050565b60006020528060005260406000206000915054906101000a900460ff1681565b600a81565b600a81565b6009602052826000526040600020602052816000526040600020602052806000526040600020600092509250509054906101000a900460ff1681565b60055481565b60008060008060006008600088815260200190815260200160002060008781526020019081526020016000209050806000015481600101548260020154836003015494509450945094505092959194509250565b60008060008060006008600087815260200190815260200160002060006005548152602001908152602001600020905080600001548160010154826002015483600301549450945094509450509193509193565b60036020528060005260406000206000915090505481565b600460019054906101000a900473ffffffffffffffffffffffffffffffffffffffff1681565b600080600860008481526020019081526020016000206000600554815260200190815260200160002090506000816001015482600001546112389190612a79565b90506000810361124d5760329250505061126e565b806064836000015461125f9190612bcf565b6112699190612c40565b925050505b919050565b600460009054906101000a900460ff1681565b6060600080600080600060066000888152602001908152602001600020905080600101816002015482600301548360040160009054906101000a900473ffffffffffffffffffffffffffffffffffffffff168460040160149054906101000a900460ff168480546112f690612ca0565b80601f016020809104026020016040519081016040528092919081815260200182805461132290612ca0565b801561136f5780601f106113445761010080835404028352916020019161136f565b820191906000526020600020905b81548152906001019060200180831161135257829003601f168201915b50505050509450955095509550955095505091939590929450565b6000600a60008481526020019081526020016000206000600554815260200190815260200160002060008373ffffffffffffffffffffffffffffffffffffffff1673ffffffffffffffffffffffffffffffffffffffff16815260200190815260200160002060009054906101000a900460ff16905092915050565b600660205280600052604060002060009150905080600001549080600101805461142e90612ca0565b80601f016020809104026020016040519081016040528092919081815260200182805461145a90612ca0565b80156114a75780601f1061147c576101008083540402835291602001916114a7565b820191906000526020600020905b81548152906001019060200180831161148a57829003601f168201915b5050505050908060020154908060030154908060040160009054906101000a900473ffffffffffffffffffffffffffffffffffffffff16908060040160149054906101000a900460ff16905086565b600260003373ffffffffffffffffffffffffffffffffffffffff1673ffffffffffffffffffffffffffffffffffffffff16815260200190815260200160002060009054906101000a900460ff16611579576040517faba4733900000000000000000000000000000000000000000000000000000000815260040160405180910390fd5b600260008373ffffffffffffffffffffffffffffffffffffffff1673ffffffffffffffffffffffffffffffffffffffff16815260200190815260200160002060009054906101000a900460ff16156115fd576040517f3a81d6fc00000000000000000000000000000000000000000000000000000000815260040160405180910390fd5b3373ffffffffffffffffffffffffffffffffffffffff168273ffffffffffffffffffffffffffffffffffffffff1603611662576040517f258814d000000000000000000000000000000000000000000000000000000000815260040160405180910390fd5b600560ff166000803373ffffffffffffffffffffffffffffffffffffffff1673ffffffffffffffffffffffffffffffffffffffff16815260200190815260200160002060009054906101000a900460ff1660ff1610156116ee576040517fe1a2a49600000000000000000000000000000000000000000000000000000000815260040160405180910390fd5b6000801b810361172a576040517fc06789fa00000000000000000000000000000000000000000000000000000000815260040160405180910390fd5b611735823383612058565b5050565b60026020528060005260406000206000915054906101000a900460ff1681565b60006007828154811061176f5761176e612cd1565b5b90600052602060002001549050919050565b6000600780549050905090565b6000600460009054906101000a900460ff16600a6117ac9190612b2c565b905090565b600a602052826000526040600020602052816000526040600020602052806000526040600020600092509250509054906101000a900460ff1681565b600260003373ffffffffffffffffffffffffffffffffffffffff1673ffffffffffffffffffffffffffffffffffffffff16815260200190815260200160002060009054906101000a900460ff1615611871576040517f3a81d6fc00000000000000000000000000000000000000000000000000000000815260040160405180910390fd5b600a60ff16600460009054906101000a900460ff1660ff16106118c0576040517f61e94fc700000000000000000000000000000000000000000000000000000000815260040160405180910390fd5b6000801b81036118fc576040517fc06789fa00000000000000000000000000000000000000000000000000000000815260040160405180910390fd5b6004600081819054906101000a900460ff168092919061191b90612d00565b91906101000a81548160ff021916908360ff1602179055505061194033600083612058565b50565b6008602052816000526040600020602052806000526040600020600091509150508060000154908060010154908060020154908060030154905084565b60016020528060005260406000206000915054906101000a900473ffffffffffffffffffffffffffffffffffffffff1681565b600581565b600260003373ffffffffffffffffffffffffffffffffffffffff1673ffffffffffffffffffffffffffffffffffffffff16815260200190815260200160002060009054906101000a900460ff16611a3b576040517faba4733900000000000000000000000000000000000000000000000000000000815260040160405180910390fd5b60008060003373ffffffffffffffffffffffffffffffffffffffff1673ffffffffffffffffffffffffffffffffffffffff16815260200190815260200160002060009054906101000a900460ff1660ff1603611ac3576040517fe1a2a49600000000000000000000000000000000000000000000000000000000815260040160405180910390fd5b60006005549050600a6000848152602001908152602001600020600082815260200190815260200160002060003373ffffffffffffffffffffffffffffffffffffffff1673ffffffffffffffffffffffffffffffffffffffff16815260200190815260200160002060009054906101000a900460ff1615611b70576040517f7c9a1cf900000000000000000000000000000000000000000000000000000000815260040160405180910390fd5b6000611b7b33610fad565b905060008111611bc0576040517f08c379a0000000000000000000000000000000000000000000000000000000008152600401611bb790612a2a565b60405180910390fd5b6001600a6000868152602001908152602001600020600084815260200190815260200160002060003373ffffffffffffffffffffffffffffffffffffffff1673ffffffffffffffffffffffffffffffffffffffff16815260200190815260200160002060006101000a81548160ff021916908315150217905550600060086000868152602001908152602001600020600084815260200190815260200160002090508315611ca25781816000016000828254611c7c9190612a79565b92505081905550806002016000815480929190611c9890612aad565b9190505550611cd8565b81816001016000828254611cb69190612a79565b92505081905550806003016000815480929190611cd290612aad565b91905055505b60003386604051602001611ced929190612d92565b60405160208183030381529060405280519060200120905080867f2b8dae225eec545e99be5094a9b74be142914a0d0304d95e0b1cdc1d223c0169868887604051611d3a93929190612af5565b60405180910390a3505050505050565b600260003373ffffffffffffffffffffffffffffffffffffffff1673ffffffffffffffffffffffffffffffffffffffff16815260200190815260200160002060009054906101000a900460ff16611dcd576040517faba4733900000000000000000000000000000000000000000000000000000000815260040160405180910390fd5b6006600084815260200190815260200160002060040160149054906101000a900460ff1615611e28576040517f0c2e1e9000000000000000000000000000000000000000000000000000000000815260040160405180910390fd5b6040518060c0016040528084815260200183838080601f016020809104026020016040519081016040528093929190818152602001838380828437600081840152601f19601f82011690508083019250505050505050815260200142815260200160055481526020013373ffffffffffffffffffffffffffffffffffffffff1681526020016001151581525060066000858152602001908152602001600020600082015181600001556020820151816001019081611ee69190612f99565b50604082015181600201556060820151816003015560808201518160040160006101000a81548173ffffffffffffffffffffffffffffffffffffffff021916908373ffffffffffffffffffffffffffffffffffffffff16021790555060a08201518160040160146101000a81548160ff02191690831515021790555090505060078390806001815401808255809150506001900390600052602060002001600090919091909150553373ffffffffffffffffffffffffffffffffffffffff16837f018daae4b28f5aa4d88da1dd47201e61f8f33202282f9dfc238344498e9e4855600554604051611fd79190612565565b60405180910390a3505050565b606481565b6000808203611ffb5760009050612053565b6000600260018461200c9190612a79565b6120169190612c40565b90508291505b818110156120515780915060028182856120369190612c40565b6120409190612a79565b61204a9190612c40565b905061201c565b505b919050565b600a6000808573ffffffffffffffffffffffffffffffffffffffff1673ffffffffffffffffffffffffffffffffffffffff16815260200190815260200160002060006101000a81548160ff021916908360ff16021790555081600160008573ffffffffffffffffffffffffffffffffffffffff1673ffffffffffffffffffffffffffffffffffffffff16815260200190815260200160002060006101000a81548173ffffffffffffffffffffffffffffffffffffffff021916908373ffffffffffffffffffffffffffffffffffffffff1602179055506001600260008573ffffffffffffffffffffffffffffffffffffffff1673ffffffffffffffffffffffffffffffffffffffff16815260200190815260200160002060006101000a81548160ff02191690831515021790555080600360008573ffffffffffffffffffffffffffffffffffffffff1673ffffffffffffffffffffffffffffffffffffffff168152602001908152602001600020819055508173ffffffffffffffffffffffffffffffffffffffff168373ffffffffffffffffffffffffffffffffffffffff167ff6ac3a5beeb5c42959c013b669bee59d8529e57afe2fca48b653b6fe495e77a7600a8460405161222a92919061306b565b60405180910390a3505050565b600080fd5b600080fd5b6000819050919050565b61225481612241565b811461225f57600080fd5b50565b6000813590506122718161224b565b92915050565b60006020828403121561228d5761228c612237565b5b600061229b84828501612262565b91505092915050565b6000819050919050565b6122b7816122a4565b82525050565b60006020820190506122d260008301846122ae565b92915050565b6122e1816122a4565b81146122ec57600080fd5b50565b6000813590506122fe816122d8565b92915050565b60008115159050919050565b61231981612304565b811461232457600080fd5b50565b60008135905061233681612310565b92915050565b60008060006060848603121561235557612354612237565b5b6000612363868287016122ef565b935050602061237486828701612327565b9250506040612385868287016122ef565b9150509250925092565b600073ffffffffffffffffffffffffffffffffffffffff82169050919050565b60006123ba8261238f565b9050919050565b6123ca816123af565b81146123d557600080fd5b50565b6000813590506123e7816123c1565b92915050565b600060ff82169050919050565b612403816123ed565b811461240e57600080fd5b50565b600081359050612420816123fa565b92915050565b600080fd5b600080fd5b600080fd5b60008083601f84011261244b5761244a612426565b5b8235905067ffffffffffffffff8111156124685761246761242b565b5b60208301915083600182028301111561248457612483612430565b5b9250929050565b600080600080606085870312156124a5576124a4612237565b5b60006124b3878288016123d8565b94505060206124c487828801612411565b935050604085013567ffffffffffffffff8111156124e5576124e461223c565b5b6124f187828801612435565b925092505092959194509250565b61250881612304565b82525050565b600060208201905061252360008301846124ff565b92915050565b60006020828403121561253f5761253e612237565b5b600061254d848285016123d8565b91505092915050565b61255f81612241565b82525050565b600060208201905061257a6000830184612556565b92915050565b6000806040838503121561259757612596612237565b5b60006125a5858286016122ef565b92505060206125b6858286016122ef565b9150509250929050565b6125c9816123ed565b82525050565b60006020820190506125e460008301846125c0565b92915050565b60008060006060848603121561260357612602612237565b5b6000612611868287016122ef565b935050602061262286828701612262565b9250506040612633868287016122ef565b9150509250925092565b6000806040838503121561265457612653612237565b5b6000612662858286016122ef565b925050602061267385828601612262565b9150509250929050565b60006080820190506126926000830187612556565b61269f6020830186612556565b6126ac6040830185612556565b6126b96060830184612556565b95945050505050565b6000602082840312156126d8576126d7612237565b5b60006126e6848285016122ef565b91505092915050565b6126f8816123af565b82525050565b600060208201905061271360008301846126ef565b92915050565b600081519050919050565b600082825260208201905092915050565b60005b83811015612753578082015181840152602081019050612738565b60008484015250505050565b6000601f19601f8301169050919050565b600061277b82612719565b6127858185612724565b9350612795818560208601612735565b61279e8161275f565b840191505092915050565b600060a08201905081810360008301526127c38188612770565b90506127d26020830187612556565b6127df6040830186612556565b6127ec60608301856126ef565b6127f960808301846124ff565b9695505050505050565b6000806040838503121561281a57612819612237565b5b6000612828858286016122ef565b9250506020612839858286016123d8565b9150509250929050565b600060c08201905061285860008301896122ae565b818103602083015261286a8188612770565b90506128796040830187612556565b6128866060830186612556565b61289360808301856126ef565b6128a060a08301846124ff565b979650505050505050565b600080604083850312156128c2576128c1612237565b5b60006128d0858286016123d8565b92505060206128e1858286016122ef565b9150509250929050565b60008060006060848603121561290457612903612237565b5b6000612912868287016122ef565b935050602061292386828701612262565b9250506040612934868287016123d8565b9150509250925092565b6000806040838503121561295557612954612237565b5b6000612963858286016122ef565b925050602061297485828601612327565b9150509250929050565b60008060006040848603121561299757612996612237565b5b60006129a5868287016122ef565b935050602084013567ffffffffffffffff8111156129c6576129c561223c565b5b6129d286828701612435565b92509250509250925092565b7f5a65726f20766f74652077656967687400000000000000000000000000000000600082015250565b6000612a14601083612724565b9150612a1f826129de565b602082019050919050565b60006020820190508181036000830152612a4381612a07565b9050919050565b7f4e487b7100000000000000000000000000000000000000000000000000000000600052601160045260246000fd5b6000612a8482612241565b9150612a8f83612241565b9250828201905080821115612aa757612aa6612a4a565b5b92915050565b6000612ab882612241565b91507fffffffffffffffffffffffffffffffffffffffffffffffffffffffffffffffff8203612aea57612ae9612a4a565b5b600182019050919050565b6000606082019050612b0a6000830186612556565b612b1760208301856124ff565b612b246040830184612556565b949350505050565b6000612b37826123ed565b9150612b42836123ed565b9250828203905060ff811115612b5b57612b5a612a4a565b5b92915050565b82818337600083830152505050565b6000612b7c8385612724565b9350612b89838584612b61565b612b928361275f565b840190509392505050565b6000604082019050612bb260008301866125c0565b8181036020830152612bc5818486612b70565b9050949350505050565b6000612bda82612241565b9150612be583612241565b9250828202612bf381612241565b91508282048414831517612c0a57612c09612a4a565b5b5092915050565b7f4e487b7100000000000000000000000000000000000000000000000000000000600052601260045260246000fd5b6000612c4b82612241565b9150612c5683612241565b925082612c6657612c65612c11565b5b828204905092915050565b7f4e487b7100000000000000000000000000000000000000000000000000000000600052602260045260246000fd5b60006002820490506001821680612cb857607f821691505b602082108103612ccb57612cca612c71565b5b50919050565b7f4e487b7100000000000000000000000000000000000000000000000000000000600052603260045260246000fd5b6000612d0b826123ed565b915060ff8203612d1e57612d1d612a4a565b5b600182019050919050565b60008160601b9050919050565b6000612d4182612d29565b9050919050565b6000612d5382612d36565b9050919050565b612d6b612d66826123af565b612d48565b82525050565b6000819050919050565b612d8c612d87826122a4565b612d71565b82525050565b6000612d9e8285612d5a565b601482019150612dae8284612d7b565b6020820191508190509392505050565b7f4e487b7100000000000000000000000000000000000000000000000000000000600052604160045260246000fd5b60008190508160005260206000209050919050565b60006020601f8301049050919050565b600082821b905092915050565b600060088302612e4f7fffffffffffffffffffffffffffffffffffffffffffffffffffffffffffffffff82612e12565b612e598683612e12565b95508019841693508086168417925050509392505050565b6000819050919050565b6000612e96612e91612e8c84612241565b612e71565b612241565b9050919050565b6000819050919050565b612eb083612e7b565b612ec4612ebc82612e9d565b848454612e1f565b825550505050565b600090565b612ed9612ecc565b612ee4818484612ea7565b505050565b5b81811015612f0857612efd600082612ed1565b600181019050612eea565b5050565b601f821115612f4d57612f1e81612ded565b612f2784612e02565b81016020851015612f36578190505b612f4a612f4285612e02565b830182612ee9565b50505b505050565b600082821c905092915050565b6000612f7060001984600802612f52565b1980831691505092915050565b6000612f898383612f5f565b9150826002028217905092915050565b612fa282612719565b67ffffffffffffffff811115612fbb57612fba612dbe565b5b612fc58254612ca0565b612fd0828285612f0c565b600060209050601f8311600181146130035760008415612ff1578287015190505b612ffb8582612f7d565b865550613063565b601f19841661301186612ded565b60005b8281101561303957848901518255600182019150602085019450602081019050613014565b868310156130565784890151613052601f891682612f5f565b8355505b6001600288020188555050505b505050505050565b600060408201905061308060008301856125c0565b61308d60208301846122ae565b939250505056fea2646970667358221220fdbceb47c30d9ba86c910022beb81092799a258d00dd3d93900905c2c8ab72d864736f6c63430008130033",
  "linkReferences": {},
  "deployedLinkReferences": {}
}